:100000000C9462010C9493010C9493010C94930151
:100010000C9493010C9493010C9493010C94930110
:100020000C9493010C9493010C9493010C94930100
:100030000C9493010C9493010C9493010C949301F0
:100040000C9493010C9493010C9493010C949301E0
:100050000C9493010C9493010C9493010C94AA0BAF
:100060000C9493010C941E0C0C94F40B0C949301BF
:100070000C9493010C9493010C9493010C949301B0
:100080000C9493010C9493010C9493010C949301A0
:100090000C9493010C9493010C9493010C94930190
:1000A0000C9493010C9493010C9493010C94930180
:1000B0000C9493010C9493010C9493010C94930170
:1000C0000C9493010C9493010C9493010C94930160
:1000D0000C9493010C9493010C9493010C94930150
:1000E0000C9493010C9472030C948A040C94840471
:1000F0000C9439050C94E0050C941E020C942C020F
:100100000C941A020C94E4040C9410020C940D0646
:100110000C9422060C9414020C9407020C942802EE
:100120000C94F7050C943E040C94FF010C94860487
:100130000C94A2050C940A020C94FB010C948C05FF
:100140000C9480040C949E080C9488040C94030274
:100150000C948C040C9430020C9414060C9436020B
:100160000C9490020C94FF050C943A020C948204B7
:100170000C948E040C942A060C94E4010C94220234
:100180000C94BF030C94540C0C945B040C946D02FF
:100190000C94E20A0C941B060C94E9010C944002A6
:1001A0000C947C020C945A050C943A030C940505AB
:1001B0000C9429060C9410040C94060600000A0BFB
:1001C00002090C0D0E0807030401000000000000E6
:1001D000000000000000000000000000000000001F
:1001E00000000000000000001211100000000000DC
:1001F00000000000000000000000000000000000FF
:10020000000000002200250028002B002E003100F5
:10021000340002010000050108010B01000021006B
:10022000240027002A002D003000330001010000C7
:10023000040107010A010505050507050808080866
:10024000020202020A0A080804040404010101016E
:100250000101010103030303030303030407070769
:100260000C0C0C0C0C0C0C0C02020202060606060E
:10027000060606060B0B0B0B0B0B0B0B01021020DB
:1002800020080810204010204080020102010804CC
:100290000201010204081020408080402010080460
:1002A00002018004020180402010080402010804B9
:1002B00002010102040810204080010204081020FD
:1002C0004080540C11241FBECFEFD1E2DEBFCDBF62
:1002D00000E00CBF27E0A4EDB5E001C01D92AE30F8
:1002E000B207E1F715E0A0E0B2E0E0E2FEE200E0F4
:1002F0000BBF02C007900D92A43DB107D9F711E0E2
:10030000C2E6D1E000E006C021970109802FFE017E
:100310000E945913C136D10780E00807A9F70E944F
:10032000580D0C940E170C94000090E0FC01E4585A
:10033000FD4F24918A5C9D4FFC018491882399F0A4
:1003400090E0880F991FFC01E45EFD4FA591B491E8
:10035000FC01EE5FFD4F859194918FB7F894EC917D
:10036000E22BEC938FBF0895282F30E0F901E4547D
:10037000FE4F9491F901E458FD4F44912A5C3D4FA2
:10038000F9012491222309F435C0992311F19150E8
:100390009231F8F4E92FF0E08827EE52FE4F8F4FAC
:1003A0000C94591303020702E401FB01FF01E90168
:1003B0000A02100214021A021E02220228022C0251
:1003C000E901300236023A02809180008F778093F3
:1003D0008000E22FF0E0EE0FFF1FEE5FFD4FA591D2
:1003E000B4918FB7F894EC91611148C040954E23B9
:1003F0004C938FBF0895809180008F7DE8CF8091CE
:100400008000877FE4CF84B58F7784BDE2CF84B549
:100410008F7DFBCF8091B0008F778093B000D9CFD4
:100420008091B0008F7DF9CF809190008F7780937D
:100430009000CFCF809190008F7DF9CF8091900078
:10044000877FF5CF8091A0008F778093A000C1CFE8
:100450008091A0008F7DF9CF8091A000877FF5CF9C
:10046000809120018F7780932001B3CF809120016C
:100470008F7DF9CF80912001877FF5CF4E2BB8CFAC
:10048000AF92BF92CF92DF92EF92FF920F931F93A2
:10049000CF93DF936C017B018B01040F151FEB01E0
:1004A0005E01AE18BF08C017D10759F06991D60197
:1004B000ED91FC910190F081E02DC6011995892BF9
:1004C00079F7C501DF91CF911F910F91FF90EF90C8
:1004D000DF90CF90BF90AF900895FC01538D448D75
:1004E000252F30E0842F90E0821B930B541710F0DF
:1004F000CF96089501970895FC01918D828D9817EC
:1005000061F0A28DAE0FBF2FB11D5D968C91928DC3
:100510009F5F9F73928F90E008958FEF9FEF0895F4
:10052000FC01918D828D981731F0828DE80FF11DBD
:10053000858D90E008958FEF9FEF08952FB7F89481
:100540008091DD059091DE05A091DF05B091E00579
:100550002FBF8093ED059093EE05A093EF05B09328
:10056000F00585EE95E00E94900297FF26C02FB718
:10057000F8948091DD059091DE05A091DF05B091A2
:10058000E0052FBF4091ED055091EE056091EF051C
:100590007091F005841B950BA60BB70B4091E905F4
:1005A0005091EA056091EB057091EC058417950771
:1005B000A607B707B0F28FEF9FEF0895CF92DF92B3
:1005C000EF92FF92CF930E949E02FC0197FD4EC0D6
:1005D0008D32910521F0C0970A9708F040C0C12CD8
:1005E000D12C7601C0E0E130F105D1F0ED32F1051A
:1005F000D9F1CF01C0970A9798F4AAE0B0E0A7011B
:1006000096010E9420136F01FF0FEE08FF08C60E2F
:10061000D71EE81EF91E80E3C81AD108E108F108C8
:1006200085EE95E00E947C020E949E02FC01C0972C
:100630000A97C8F2E130F105B1F2CC2341F0F09411
:10064000E094D094C094C11CD11CE11CF11CC701E2
:10065000B601CF91FF90EF90DF90CF90089585EE97
:1006600095E00E947C02AFCFC1E0DACFC12CD12C43
:100670007601EDCFFC01918D228D892F90E0805C79
:100680009F4F821B91098F739927089585EE95E0FE
:100690000E943A0321E0892B09F420E0822F08957B
:1006A000FC01A48DA80FB92FB11DA35ABF4F2C91E7
:1006B000848D90E001968F739927848FA689B789DE
:1006C0002C93A089B1898C91837080648C93938DD5
:1006D000848D981306C00288F389E02D80818F7D78
:1006E00080830895EF92FF920F931F93CF93DF9330
:1006F000EC0181E0888F9B8D8C8D98131AC0E8895E
:10070000F989808185FF15C09FB7F894EE89FF892C
:100710006083E889F98980818370806480839FBFCA
:1007200081E090E0DF91CF911F910F91FF90EF90CA
:100730000895F62E0B8D10E00F5F1F4F0F731127DA
:10074000E02E8C8D8E110CC00FB607FCFACFE88915
:10075000F989808185FFF5CFCE010E945003F1CF4A
:10076000EB8DEC0FFD2FF11DE35AFF4FF0829FB789
:10077000F8940B8FEA89FB8980818062CFCFCF9379
:10078000DF93EC01888D8823B9F0AA89BB89E889B9
:10079000F9898C9185FD03C0808186FD0DC00FB65F
:1007A00007FCF7CF8C9185FFF2CF808185FFEDCFDD
:1007B000CE010E945003E9CFDF91CF91089580E0F0
:1007C00090E0892B29F00E94460381110E940000CD
:1007D00080E090E0892B49F080E090E0892B29F0BF
:1007E0000E94000081110E94000080E090E0892BAF
:1007F00049F080E090E0892B29F00E9400008111EF
:100800000E94000080E090E0892B49F080E090E0B9
:10081000892B29F00E94000081110C94000008959A
:10082000CF93DF93FC012781222329F1EC018085FE
:100830000E94950189850E9495018F81843011F075
:10084000883099F48A850E9495018B850E949501D4
:100850008FA58F3F81F00E9495016EA581E06827EA
:100860008FA5DF91CF910C94B401833011F08630C5
:1008700079F78A85EBCFDF91CF910895CF93DF93FE
:10088000FC0127812223A1F0EC010190F081E02DF1
:100890000284F385E02D60E019958FA58F3F41F02C
:1008A0000E9495016EA58FA5DF91CF910C94B401A4
:1008B000DF91CF910895DC01ED91FC911197228594
:1008C00033854770552766277727415051096109BD
:1008D0007109473051056105710570F4FA018827E7
:1008E000EB58FB4F8F4F0C945913800482048404FF
:1008F000860488048A048C0461E0CD01F90119940E
:1009000065E0FBCF64E0F9CF66E0F7CF62E0F5CFBA
:100910006AE0F3CF68E0F1CF69E0EFCFCF93DF93E8
:10092000EC01CB01BA0126E030E040E050E00E944B
:100930003A13623071058105910589F16CF46115F6
:10094000710581059105D1F0613071058105910531
:10095000F9F0DF91CF91089564307105810591051B
:1009600061F124F1653071058105910591F7E88108
:10097000F9810284F385E02D66E006C0E881F98103
:100980000284F385E02D64E0CE01DF91CF911994CC
:10099000E881F9810284F385E02D65E0F5CFE881F7
:1009A000F9810284F385E02D61E0EECFE881F981E1
:1009B0000284F385E02D63E0E7CFE881F9810284CA
:1009C000F385E02D62E0E0CFDC01ED91FC91028443
:1009D000F385E02D43705527662777274230510570
:1009E0006105710571F0433051056105710559F0DC
:1009F000413051056105710511F065E0199466E01B
:100A0000FDCF6AE0FBCF69E0F9CFCF93DF93EC0134
:100A1000CB01BA0123E030E040E050E00E943A13FD
:100A2000613071058105910599F06230710581058C
:100A30009105A9F0672B682B692BC1F4E881F98136
:100A40000284F385E02D64E0CE01DF91CF9119940B
:100A5000E881F9810284F385E02D61E0F5CFE8813A
:100A6000F9810284F385E02D62E0EECFDF91CF9132
:100A70000895DC01ED91FC910284F385E02D437033
:100A8000552766277727423051056105710571F0BA
:100A9000433051056105710559F04130510561053B
:100AA000710511F062E0199463E0FDCF61E0FBCFC6
:100AB00060E0F9CFCF93DF93EC01E881F981028404
:100AC000F385E02D8A8160E0811162E0CE01199505
:100AD000E881F9810284F385E02D8A8161E081114A
:100AE00063E0CE0119958CA59DA58230910538F063
:100AF000880F991F880F991F05970197F1F7E881D3
:100B0000F9810284F385E02D8A8160E0811162E041
:100B1000CE01DF91CF911994CF93DF93EC0120E0C8
:100B200030E0A901688D798D8A8D9B8D0E94981483
:100B300018162CF4E8A9F9A9DF91CF911994EAA924
:100B4000FBA9FACFCF92DF92EF92FF920F931F9300
:100B5000CF93DF93DC011796CC91C43039F0C830C5
:100B600059F1C33019F0C63049F1C2E08C01085F79
:100B70001F4FF12CE12CC62ED12CD1E0F80164815D
:100B8000C6010E2C02C0959587950A94E2F780FD68
:100B90006D270F5F1F4F80810E94B401BFEFEB1ADA
:100BA000FB0AEC1658F3DF91CF911F910F91FF9044
:100BB000EF90DF90CF900895C4E0D8CFC3E0D6CFB8
:100BC000DC011796EC911797E93008F042C0F0E08D
:100BD0008827E251FA4F8F4F0C945913F705FF0500
:100BE00006060D06140629061B0629062206ED91A7
:100BF000FC9111970684F785E02DCD011994ED91B4
:100C0000FC9111970088F189E02DF7CFED91FC91CF
:100C100011970288F389E02DF0CFED91FC911197A7
:100C20000488F589E02DE9CFED91FC9111970688B4
:100C3000F789E02DE2CFED91FC911197008CF18DB9
:100C4000E02DDBCFED91FC911197028CF38DE02D1F
:100C5000D4CF08954F925F926F927F928F929F921E
:100C6000AF92BF92CF92DF92EF92FF920F931F93BA
:100C7000CF93DF93EC01CC88DD88EE88FF888889EC
:100C80009989AA89BB89C81AD90AEA0AFB0A688D18
:100C9000798D8A8D9B8D9B01AC010E9462124B0164
:100CA0005C0168A179A18AA19BA19B01AC010E9472
:100CB00084139B01AC01C501B4010E94F0130E9492
:100CC0006214C114D104E104F10409F0B6C0623029
:100CD0007105810591050CF0D0C01B821C821D821C
:100CE0001E82188E198E1A8E1B8E1CAA1DAA1EAA71
:100CF0001FAAC12CD12C7601C701B601DF91CF917B
:100D00001F910F91FF90EF90DF90CF90BF90AF9029
:100D10009F908F907F906F905F904F9008951016E6
:100D2000110612061306B4F46C157D058E059F0599
:100D30001CF42A812111A1C09B01AC0188279927AD
:100D4000DC01821B930BA40BB50B8CAB9DABAEAB44
:100D5000BFAB93C0011511052105310509F48DC004
:100D60006C157D058E059F050CF087C08A81882350
:100D700009F483C030952095109501951F4F2F4F92
:100D80003F4F0CAB1DAB2EAB3FAB77C00115110530
:100D90002105310509F471C08824992454018C1867
:100DA0009D08AE08BF08681579058A059B050CF0FB
:100DB00064C08A81811161C0DDCFCCACDDACEEAC0A
:100DC000FFACA7019601C701B6010E9484132B0155
:100DD0003C01C501B4010E94031220E030E040E86C
:100DE00050E40E94621220E030E040E85FE30E949D
:100DF00084139B01AC01C301B2010E94F0139B015B
:100E0000AC01C701B6010E9483133B016C01FE01D6
:100E1000E05CFF4FE080F180028113819701A8011F
:100E20000E949814181614F473018601C701D801A2
:100E30008CAF9DAFAEAFBFAF3AC00CA91DA92EA914
:100E40003FA91C141D041E041F040CF468CF1016C7
:100E50001106120613060CF099CF002711279801EE
:100E60000C191D092E093F096017710782079307A6
:100E70000CF062CF2A8121115FCF8CA89DA8AEA86B
:100E8000BFA881149104A104B10409F096CF88ADE4
:100E900099ADAAADBBAD8CAF9DAFAEAFBFAF81E09A
:100EA0001C141D041E041F040CF080E08A833FEF15
:100EB000831A930AA30AB30A8CAA9DAAAEAABFAA50
:100EC0008CAC9DACAEACBFACC501B4010E94691442
:100ED0006B017C01CB82DC82ED82FE82A501940154
:100EE00060E074E284E799E40E94F013688F798FE0
:100EF0008A8F9B8F2A812111FFCE9058688F798F1E
:100F00008A8F9B8FF9CECF92DF92EF92FF92CF9391
:100F1000DF93EC018B819C81AD81BE81892B8A2B73
:100F20008B2B09F453C03FB7F8948091E105909161
:100F3000E205A091E305B091E40526B5A89B05C0A4
:100F40002F3F19F00196A11DB11D3FBFBA2FA92F48
:100F5000982F88276C017D01C20ED11CE11CF11C69
:100F600042E0CC0CDD1CEE1CFF1C4A95D1F788A595
:100F700099A5AAA5BBA5B701A601481B590B6A0BE9
:100F80007B0B8B819C81AD81BE81481759076A0715
:100F90007B07E0F088899989AA89BB892A81222365
:100FA000B1F10196A11DB11D888B998BAA8BBB8BCA
:100FB000488959896A897B89CE010E94E005C8A6C3
:100FC000D9A6EAA6FBA6CE010E942A0620E030E0C0
:100FD000A901688D798D8A8D9B8D0E94FC118111EC
:100FE0001AC081E0CC88DD88EE88FF88488959895D
:100FF0006A897B89C416D506E606F70609F480E0FF
:10100000DF91CF91FF90EF90DF90CF9008950197FF
:10101000A109B109C9CF81E0F3CFCF92DF92EF925E
:10102000FF920F931F93CF93DF93EC016A017B0133
:1010300020E030E0A901CB01B6010E94FC1187FF3E
:1010400004C0F7FAF094F7F8F094A70196016C8DBC
:101050007D8D8E8D9F8D0E94FC11882309F446C0E2
:10106000CC8EDD8EEE8EFF8E8E01005C1F4FA701B1
:10107000960160E074E284E799E40E94F013F801BD
:1010800060837183828393838CA99DA9AEA9BFA934
:10109000181619061A061B064CF5688D798D8A8D6F
:1010A0009B8D9B01AC010E9462126B017C0168A1C7
:1010B00079A18AA19BA19B01AC010E9484139B0191
:1010C000AC01C701B6010E94F0130E9462146CAB20
:1010D0007DAB8EAB9FABCE01DF91CF911F910F9176
:1010E000FF90EF90DF90CF900C942A06DF91CF9184
:1010F0001F910F91FF90EF90DF90CF9008950F9385
:101100001F93FC010089118922893389400F511FE7
:10111000621F731F04891589268937894017510773
:101120006207730741F0448B558B668B778B1F9159
:101130000F910C942A061F910F9108950895CF9353
:10114000DF93EC01072E000C880B990B0E94031211
:10115000AB01BC0186EC96E00E940D08CE01DD0FCC
:10116000AA0BBB0B4091DA065091DB066091DC06BE
:101170007091DD0684179507A607B70771F0809375
:10118000DA069093DB06A093DC06B093DD0686ECCE
:1011900096E0DF91CF910C942A06DF91CF910895CC
:1011A000CF92DF92EF92FF920F931F93FB01BA0150
:1011B000C090DA06D090DB06E090DC06F090DD0609
:1011C0000091D6061091D7062091D8063091D90605
:1011D000C016D106E206F306C1F420910002309158
:1011E000010244275527421B530B509301024093A1
:1011F00000022F3F3F4F09F4CF011F910F91FF9045
:10120000EF90DF90CF900C949F081F910F91FF906B
:10121000EF90DF90CF90089542E050E06EE372E0EF
:1012200085EE95E00C944002CF93DF93FC01019092
:101230000020E9F73197AF01481B590BBC0185EE3F
:1012400095E00E944002EC010E940C098C0F9D1F4A
:10125000DF91CF910895CF93DF93FC0144815581B5
:101260006081718185EE95E00E944002EC010E9450
:101270000C098C0F9D1FDF91CF9108950F931F9341
:10128000CF93DF93EC0188819981009759F02A81EF
:101290003B812617370730F081E0DF91CF911F9116
:1012A0000F9108958B016F5F7F4F0E941D1600976D
:1012B00059F0998388831B830A832C813D81232BDA
:1012C00059F7FC011082E8CF80E0E7CFEF92FF9260
:1012D0000F931F93CF93DF936115710541F480E065
:1012E000DF91CF911F910F91FF90EF9008954115DD
:1012F0005105B1F07B01EC010C811D81040F151F1C
:10130000B8010E943E09882351F3288139818C81DC
:101310009D81B701820F931F0E9407171D830C83C5
:1013200081E0DECFCF93DF93EC0188819981009734
:1013300011F00E949415198218821D821C821B8252
:101340001A82DF91CF910895CF92DF92EF92FF92B0
:101350000F931F93CF93DF93CDB7DEB762970FB68E
:10136000F894DEBF0FBECDBF8C01CB01F801118216
:10137000108213821282158214824AE09E012F5F2E
:101380003F4F6901B9010E94C711F6010190002089
:10139000E9F731977F01EC18FD08B701C8010E94F9
:1013A0003E09811112C0C8010E94920962960FB6CF
:1013B000F894DEBF0FBECDBFDF91CF911F910F918B
:1013C000FF90EF90DF90CF900895F801F582E482CE
:1013D000B601808191810E940717E8CFCF93DF93F8
:1013E000EC01FB0101900020E9F73197AF01461BAA
:1013F000570B0E946609811103C0CE010E94920919
:10140000CE01DF91CF910895CF93DF93EC01FB01E3
:1014100044815581608171810E946609811103C0F8
:10142000CE010E949209CE01DF91CF910895EF92F3
:10143000FF920F931F93CF93DF93EC017B011982EF
:1014400018821B821A821D821C82FB0101900020DF
:10145000E9F731978F01061B170BB8010E943E096F
:10146000811109C0CE01DF91CF911F910F91FF90A3
:10147000EF900C9492091D830C83B70188819981A8
:10148000DF91CF911F910F91FF90EF900C94071770
:10149000FC0180819181009711F00C9494150895BE
:1014A000CF93DF93CDB7DEB72C970FB6F894DEBF9E
:1014B0000FBECDBF81E492E00E94140983E592E063
:1014C0000E9414098DE592E00E94140960910402C3
:1014D00070910502CE0107960E94A4096BE772E0A5
:1014E000CE0101960E94170ABE01695F7F4FCE01AF
:1014F00001960E94040A62ED75E00E94EE090E94C6
:101500002B09CE0101960E94480ACE0107960E943F
:10151000480A6091D4057091D505CE0107960E94C6
:10152000A40961EA72E0CE0101960E94170ABE0189
:10153000695F7F4FCE0101960E94040A62ED75E05B
:101540000E94EE090E942B09CE0101960E94480AD2
:10155000CE0107960E94480A609102027091030230
:10156000CE0107960E94A40968EC72E0CE010196B4
:101570000E94170ABE01695F7F4FCE0101960E944B
:10158000040A62ED75E00E94EE090E942B09CE016B
:1015900001960E94480ACE0107960E94480A8EEEE4
:1015A00092E00E94140983E093E00E9414090E94D3
:1015B0000C092C960FB6F894DEBF0FBECDBFDF919D
:1015C000CF9108950C9494154F925F926F927F92F1
:1015D0008F929F92AF92BF92CF92DF92EF92FF9243
:1015E000CF93DF93EC016A017B0120E030E0A90199
:1015F000CB01B6010E94FC1187FF04C0F7FAF094FA
:10160000F7F8F09488A099A0AAA0BBA0A701960122
:10161000C501B4010E94FC11882309F44DC06CA9D6
:101620007DA98EA99FA90E9403122B013C01A7014D
:101630009601C501B4010E94F0139B01AC01C301E6
:10164000B2010E9462120E9462146CAB7DAB8EAB41
:101650009FABA701960160E070E080E090E40E94FB
:10166000F0130E94A31426E53EE04DE25FE30E94E2
:10167000621220E034E244E759E40E94621268AF4B
:1016800079AF8AAF9BAFC8A2D9A2EAA2FBA2E88138
:10169000F9810084F185E02DCE01DF91CF91FF909B
:1016A000EF90DF90CF90BF90AF909F908F907F9002
:1016B0006F905F904F901994DF91CF91FF90EF90D2
:1016C000DF90CF90BF90AF909F908F907F906F9062
:1016D0005F904F900895CF93DF93EC01BC01990F79
:1016E000880B990B0E940312AB01BC0182E896E0C3
:1016F0000E940D0840E050E068E473E482E896E060
:101700000E94E40A80E096E3A5E6B4ECD7FD04C0AD
:1017100080E09AECAAE9BBE34091960650919706C7
:10172000609198067091990684179507A607B707E8
:1017300071F08093960690939706A0939806B093C5
:10174000990682E896E0DF91CF910C942A06DF910A
:10175000CF9108951F920F920FB60F9211242F93DD
:101760003F938F939F93AF93BF938091DD059091AB
:10177000DE05A091DF05B091E0053091DC0523E0A6
:10178000230F2D3758F50196A11DB11D2093DC05BF
:101790008093DD059093DE05A093DF05B093E0050F
:1017A0008091E1059091E205A091E305B091E405F7
:1017B0000196A11DB11D8093E1059093E205A093D0
:1017C000E305B093E405BF91AF919F918F913F9155
:1017D0002F910F900FBE0F901F90189526E8230FA2
:1017E0000296A11DB11DD2CF1F920F920FB60F927C
:1017F00011240BB60F922F933F934F935F936F93E8
:101800007F938F939F93AF93BF93EF93FF9385EE57
:1018100095E00E945003FF91EF91BF91AF919F918E
:101820008F917F916F915F914F913F912F910F9089
:101830000BBE0F900FBE0F901F9018951F920F9226
:101840000FB60F9211240BB60F922F938F939F9385
:10185000EF93FF93E091F505F091F6058081E0911B
:10186000FB05F091FC0582FD1DC090818091FE0575
:101870008F5F8F732091FF05821741F0E091FE0585
:10188000F0E0EB51FA4F958F8093FE05FF91EF91B9
:101890009F918F912F910F900BBE0F900FBE0F90C5
:1018A0001F9018958081F2CF8F929F92AF92BF9236
:1018B000CF92DF92EF92FF920F931F93CF93DF931C
:1018C000E5EEF5E01382128288EE93E0A0E0B0E04E
:1018D00084839583A683B78380E192E0918380839C
:1018E00085EC90E09587848784EC90E097878687E5
:1018F00080EC90E0918B808B81EC90E0938B828BDD
:1019000082EC90E0958B848B86EC90E0978B868BB5
:10191000118E128E138E148EE6ECF6E002E212E0C7
:1019200011830083882483948782108A118A128A03
:10193000138A148A158A168A178A108E118E128EAF
:10194000138E148E158E168E178E10A211A212A24F
:1019500013A2C12CD12C80E8E82E8FE3F82EC4A26C
:10196000D5A2E6A2F7A21382148215821682C1E0E4
:10197000D0E0D5A7C4A799249A9497A610A611A63B
:1019800012A613A687E3808786E3818794E0A92EB9
:10199000A28625E0B22EB38616A614AA15AA16AA08
:1019A00017AA10AE11AE12AE13AE14AE15AE16AE2F
:1019B00017AEC0920607D0920707E0920807F09290
:1019C000090712821486158616861786CF010E9493
:1019D0001004B701A60186EC96E00E94E40AB70164
:1019E000A60186EC96E00E940D08E2E8F6E011837D
:1019F00000838782108A118A128A138A148A158AB0
:101A0000168A178A108E118E128E138E148E158ED2
:101A1000168E178E10A211A212A213A2C4A2D5A2D2
:101A2000E6A2F7A21382148215821682D5A7C4A754
:101A300097A610A611A612A613A68AE3808789E3AB
:101A40008187A286B38616A614AA15AA16AA17AA73
:101A500010AE11AE12AE13AE14AE15AE16AE17AE7A
:101A6000C092C206D092C306E092C406F092C506A8
:101A700012821486158616861786CF010E941004DE
:101A8000B701A60182E896E00E94E40AB701A60128
:101A900082E896E0DF91CF911F910F91FF90EF9038
:101AA000DF90CF90BF90AF909F908F900C940D08D7
:101AB000CF93DF93CDB7DEB762970FB6F894DEBF52
:101AC0000FBECDBF789484B5826084BD84B581603B
:101AD00084BD85B5826085BD85B5816085BD8091F9
:101AE0006E00816080936E00109281008091810071
:101AF0008260809381008091810081608093810069
:101B0000809180008160809380008091B10084602A
:101B10008093B1008091B00081608093B00080918B
:101B20009100826080939100809191008160809308
:101B30009100809190008160809390008091A1003D
:101B400082608093A1008091A10081608093A100B8
:101B50008091A00081608093A0008091210182602B
:101B600080932101809121018160809321018091E6
:101B7000200181608093200180917A0084608093AD
:101B80007A0080917A00826080937A0080917A0056
:101B9000816080937A0080917A00806880937A00D7
:101BA0001092C100E091F505F091F60582E0808386
:101BB000E091F105F091F2051082E091F305F091CA
:101BC000F40580E180831092FD05E091F905F09124
:101BD000FA0586E08083E091F705F091F8058081B1
:101BE00080618083E091F705F091F805808188603D
:101BF0008083E091F705F091F8058081806880830B
:101C0000E091F705F091F80580818F7D808361E098
:101C100088E30E94B40161E08BE30E94B40182E09A
:101C20000E94950183E00E94950184E00E94950145
:101C300060E082E00E94B40160E083E00E94B401B1
:101C400060E084E00E94B40140E050E86BE375E49A
:101C500086EC96E00E940D0840E050E86BE375E4E6
:101C600082E896E00E940D0840E050E46CE176E4E2
:101C700086EC96E00E94E40A40E050E068E473E4F9
:101C800082E896E00E94E40A84E193E00E9414094D
:101C900088E393E00E94140948E95DEB6FEF7FEF62
:101CA00086EC96E00E947F0886EC96E00E9483070F
:101CB0008111FACF1092D6061092D7061092D8064C
:101CC0001092D9061092DA061092DB061092DC060A
:101CD0001092DD061092FA061092FB061092FC0696
:101CE0001092FD061092C9061092CA061092CB06F9
:101CF0001092CC061092DE061092DF061092E006DB
:101D00001092E1068AE493E00E9414090E94500AAE
:101D10007724739484E0A82EB12C92E0892E912C24
:101D200082E896E00E94830786EC96E00E94830793
:101D300085EE95E00E943A03181619060CF0A4C02F
:101D400085EE95E00E947C02182F85EE95E00E94BA
:101D50003A03181619062CF485EE95E00E947C02D1
:101D6000F4CF1D3409F4EBC00CF03FC0123309F47A
:101D7000A4C0133309F4C2C0113309F085C086ED45
:101D800093E00E94140985EE95E00E943A03892BA6
:101D9000D1F30E94DE026B30710514F06AE070E04E
:101DA0001616170614F061E070E070930502609358
:101DB0000402CE0107960E94A40960E074E0CE01FF
:101DC00001960E94170ABE01695F7F4FCE010196FE
:101DD0000E94040A0E942B09CE0101960E94480A23
:101DE000CE0107960E94480A4FC01D3609F4A7C0CD
:101DF000133719F0133509F047C08091DB058111C5
:101E000057C089E593E00E9414097092DB0581E0D8
:101E100090E09093DA058093D9051092D70510923F
:101E2000D6058FEF9FEF909301028093000261E04F
:101E300082E00E94B40161E083E00E94B40188E77F
:101E400093E00E94140968EE73E0CE0101960E94AF
:101E5000A40966E973E0CE0107960E94170ABE0145
:101E60006F5F7F4FCE0107960E94040A0E942B09E4
:101E7000CE0107960E94480ACE0101960E94480AA8
:101E800088EE93E00E946B0B8091DB05882369F05C
:101E90008091D9059091DA058230910509F462C1EB
:101EA00008F050C0019709F4B8C00E94DF0338CF92
:101EB0008FEB93E00E941409E7CF8AE194E00E943F
:101EC000140985EE95E00E943A03892BD1F30E9414
:101ED000DE026B30710514F06AE070E0161617062A
:101EE00014F061E070E07093D5056093D405CE01E5
:101EF00007960E94A40965E474E061CF80E694E04F
:101F00000E94140985EE95E00E943A03892BD1F3D3
:101F10000E94DE026B30710514F06AE070E0161664
:101F2000170614F061E070E0709303026093020200
:101F3000CE0107960E94A4096AE874E040CF0E948F
:101F4000500AA2CF8330910509F4A1C1049709F08A
:101F5000ACCF60E082E00E94B40160E083E00E94C8
:101F6000B40160E084E00E94B40190E080E00E944F
:101F70006B0B20909A0630909B0640909C065090E8
:101F80009D0620E030E0A901C201B1010E94FC11D0
:101F9000882391F1A2019101C201B1010E94621254
:101FA0006B017C016091A2067091A3068091A4064A
:101FB0009091A5069B01AC010E9484139B01AC018A
:101FC000C701B6010E94F0130E9462146B017C01EC
:101FD00020E030E0A901C201B1010E949814B701CC
:101FE000A60118160CF0CEC14F5F5F4F6F4F7F4FA9
:101FF00082E896E00E947F088DE695E00E94140931
:102000000E940C0982E995E00E9414091092DB05F8
:102010001092DA051092D90548CF8091D805811128
:102020000AC07092D8054CED55E068EB74E280EA86
:102030009FE00E94D0084091DA065091DB06609143
:10204000DC067091DD068091D6069091D706A091AE
:10205000D806B091D906481759076A077B0709F0D7
:1020600024CF8091D805882309F41FCF8091D6050D
:102070009091D70501969093D7058093D6056091EE
:10208000040270910502CE0101960E94A40960919C
:10209000D6057091D705CE0107960E94A40964EA7F
:1020A00074E0CE010D960E94170ABE01695F7F4F52
:1020B000CE010D960E94040A67EB74E00E94EE09BF
:1020C000BE016F5F7F4F0E94040A69EB74E00E94BB
:1020D000EE090E942B09CE010D960E94480ACE01FE
:1020E00007960E94480ACE0101960E94480A209154
:1020F000D6053091D70580910402909105022817EA
:1021000039076CF19092DA058092D9051092D705C3
:102110001092D60560E083E00E94B40183EC94E065
:102120000E94140968EE73E0CE0101960E94A40992
:1021300063EE74E0CE0107960E94170ABE016F5F3E
:102140007F4FCE0107960E94040A0E942B09CE0100
:1021500007960E94480ACE0101960E94480A1092F2
:10216000D805A3CE8091D80581110AC07092D805F8
:102170004CED55E068EB74E280EA9FE00E94D008E5
:102180004091DA065091DB066091DC067091DD0625
:102190008091D6069091D706A091D806B091D90625
:1021A000481759076A077B0709F07FCE8091D80549
:1021B000882309F47ACE8091D6059091D7050196AF
:1021C0009093D7058093D6056091D4057091D5057D
:1021D000CE0101960E94A4096091D6057091D705A1
:1021E000CE0107960E94A4096EE075E0CE010D961F
:1021F0000E94170ABE01695F7F4FCE010D960E94B3
:10220000040A67EB74E00E94EE09BE016F5F7F4F26
:102210000E94040A69EB74E00E94EE090E942B09F7
:10222000CE010D960E94480ACE0107960E94480AE8
:10223000CE0101960E94480A2091D6053091D7051B
:102240008091D4059091D505281739070CF487CFD4
:1022500083E090E09093DA058093D9051092D7053A
:102260001092D60560E082E00E94B40161E084E053
:102270000E94B40182E295E00E94140968EE73E0C6
:10228000CE0101960E94A40966E375E053CF8091C8
:10229000D80581110AC07092D8054CED55E068EB65
:1022A00074E280EA9FE00E94D0084091DA065091E3
:1022B000DB066091DC067091DD068091D606909178
:1022C000D706A091D806B091D906481759076A07D2
:1022D0007B0709F0EACD8091D805882309F4E5CD84
:1022E0008091D6059091D70501969093D70580935C
:1022F000D6056091020270910302CE0101960E9400
:10230000A4096091D6057091D705CE0107960E9469
:10231000A4096AE575E0CE010D960E94170ABE0178
:10232000695F7F4FCE010D960E94040A67EB74E04F
:102330000E94EE09BE016F5F7F4F0E94040A69EBA5
:1023400074E00E94EE090E942B09CE010D960E94B6
:10235000480ACE0107960E94480ACE0101960E94C3
:10236000480A2091D6053091D705809102029091BC
:102370000302281739070CF4F2CEB092DA05A092C6
:10238000D905EDCE409550956095709531CEBB271F
:102390004A3031F4992322F4BDE2909581959F4F04
:1023A0000C94D311BB27FB015527AA27880F991F2F
:1023B000AA1FA41710F0A41B83955051B9F7A05D74
:1023C000AA3308F0A95DA193009779F7B111B193F1
:1023D0001192CB010C94EC11DC01FC01672F71917F
:1023E0007723E1F7329704C07C916D9370836291FB
:1023F000AE17BF07C8F308950E943E1208F481E0AB
:102400000895E89409C097FB3EF4909580957095E7
:1024100061957F4F8F4F9F4F9923A9F0F92F96E930
:10242000BB279395F695879577956795B795F111A5
:10243000F8CFFAF4BB0F11F460FF1BC06F5F7F4F42
:102440008F4F9F4F16C0882311F096E911C0772354
:1024500021F09EE8872F762F05C0662371F096E85D
:10246000862F70E060E02AF09A95660F771F881F2C
:10247000DAF7880F9695879597F90895990F0008D0
:10248000550FAA0BE0E8FEEF16161706E807F90746
:10249000C0F012161306E407F50798F0621B730BE1
:1024A000840B950B39F40A2661F0232B242B252B62
:1024B00021F408950A2609F4A140A6958FEF811D05
:1024C000811D08950E9475120C94E6120E94D81284
:1024D00038F00E94DF1220F0952311F00C94CF12F7
:1024E0000C94D51211240C941A130E94F71270F355
:1024F000959FC1F3950F50E0551F629FF001729FA9
:10250000BB27F00DB11D639FAA27F00DB11DAA1FB7
:10251000649F6627B00DA11D661F829F2227B00D04
:10252000A11D621F739FB00DA11D621F839FA00D8F
:10253000611D221F749F3327A00D611D231F849FDF
:10254000600D211D822F762F6A2F11249F57504036
:102550009AF0F1F088234AF0EE0FFF1FBB1F661FB1
:10256000771F881F91505040A9F79E3F510580F07A
:102570000C94CF120C941A135F3FE4F3983ED4F3FB
:10258000869577956795B795F795E7959F5FC1F71E
:10259000FE2B880F911D9695879597F9089597F9C9
:1025A0009F6780E870E060E008959FEF80EC0895F9
:1025B00000240A9416161706180609060895002422
:1025C0000A9412161306140605060895092E03949C
:1025D000000C11F4882352F0BB0F40F4BF2B11F410
:1025E00060FF04C06F5F7F4F8F4F9F4F089557FD6F
:1025F0009058440F551F59F05F3F71F04795880F71
:1026000097FB991F61F09F3F79F087950895121607
:1026100013061406551FF2CF4695F1DF08C01616B3
:1026200017061806991FF1CF869571056105089464
:102630000895E894BB2766277727CB0197F908957B
:102640000E942B13A59F900DB49F900DA49F800D09
:10265000911D11240895A29FB001B39FC001A39FB3
:10266000700D811D1124911DB29F700D811D1124CB
:10267000911D0895052E97FB1EF400940E9451139E
:1026800057FD07D00E94611307FC03D04EF40C9451
:10269000511350954095309521953F4F4F4F5F4FC7
:1026A000089590958095709561957F4F8F4F9F4FBE
:1026B0000895EE0FFF1F881F8BBF0790F691E02D46
:1026C0001994A1E21A2EAA1BBB1BFD010DC0AA1F63
:1026D000BB1FEE1FFF1FA217B307E407F50720F08B
:1026E000A21BB30BE40BF50B661F771F881F991F06
:1026F0001A9469F760957095809590959B01AC014F
:10270000BD01CF0108955058BB27AA270E949B13F3
:102710000C94E6120E94D81238F00E94DF1220F0CA
:1027200039F49F3F19F426F40C94D5120EF4E09579
:10273000E7FB0C94CF12E92F0E94F71258F3BA1757
:10274000620773078407950720F079F4A6F50C94C7
:1027500019130EF4E0950B2EBA2FA02D0B01B90121
:1027600090010C01CA01A0011124FF27591B99F007
:10277000593F50F4503E68F11A16F040A22F232F13
:10278000342F4427585FF3CF469537952795A79563
:10279000F0405395C9F77EF41F16BA0B620B730B0A
:1027A000840BBAF09150A1F0FF0FBB1F661F771F7B
:1027B000881FC2F70EC0BA0F621F731F841F48F430
:1027C000879577956795B795F7959E3F08F0B0CFB9
:1027D0009395880F08F09927EE0F979587950895A0
:1027E0000E9404140C94E6120E94DF1258F00E941A
:1027F000D81240F029F45F3F29F00C94CF12511108
:102800000C941A130C94D5120E94F71268F39923B2
:10281000B1F3552391F3951B550BBB27AA276217DC
:102820007307840738F09F5F5F4F220F331F441FE9
:10283000AA1FA9F335D00E2E3AF0E0E832D091501D
:102840005040E695001CCAF72BD0FE2F29D0660F0A
:10285000771F881FBB1F261737074807AB07B0E84D
:1028600009F0BB0B802DBF01FF2793585F4F3AF053
:102870009E3F510578F00C94CF120C941A135F3FD1
:10288000E4F3983ED4F3869577956795B795F795D9
:102890009F5FC9F7880F911D9695879597F90895C1
:1028A000E1E0660F771F881FBB1F6217730784075D
:1028B000BA0720F0621B730B840BBA0BEE1F88F76C
:1028C000E09508950E9469146894B1110C941A134C
:1028D00008950E94FF1288F09F5798F0B92F99270A
:1028E000B751B0F0E1F0660F771F881F991F1AF0FB
:1028F000BA95C9F714C0B13091F00E941913B1E034
:1029000008950C941913672F782F8827B85F39F032
:10291000B93FCCF3869577956795B395D9F73EF493
:1029200090958095709561957F4F8F4F9F4F08953B
:102930000E943E1208F48FEF089519F416F40C94D7
:10294000D5120C94E3140E94FF12B8F39923C9F333
:10295000B6F39F57550B87FF0E94F1140024A0E6A1
:1029600040EA900180585695979528F4805C660F50
:10297000771F881F20F026173707480730F4621B9F
:10298000730B840B202931294A2BA69517940794A1
:10299000202531254A2758F7660F771F881F20F01A
:1029A00026173707480730F4620B730B840B200D92
:1029B000311D411DA09581F7B901842F9158880FD1
:1029C0009695879508959F3F31F0915020F4879513
:1029D00077956795B795880F911D9695879597F987
:1029E000089591505040660F771F881FD2F70895C1
:1029F0000F931F93CF93DF938230910510F482E001
:102A000090E0E0910C07F0910D0730E020E0B0E09D
:102A1000A0E0309799F42115310509F44AC0281B2C
:102A2000390B24303105D8F58A819B8161157105F8
:102A300089F1FB0193838283FE0111C040815181A2
:102A40000281138148175907E0F04817590799F494
:102A5000109761F012960C93129713961C9332966E
:102A6000CF01DF91CF911F910F91089500930C0733
:102A700010930D07F4CF2115310551F0421753077C
:102A800038F0A901DB019A01BD01DF01F801C1CFD6
:102A9000EF01F9CF90930D0780930C07CDCFFE0186
:102AA000E20FF31F819391932250310939832883D8
:102AB000D7CF20910A0730910B07232B41F42091A7
:102AC00008023091090230930B0720930A072091E6
:102AD0000602309107022115310541F42DB73EB7AA
:102AE00040910A0250910B02241B350BE0910A071A
:102AF000F0910B07E217F307A0F42E1B3F0B2817EA
:102B0000390778F0AC014E5F5F4F2417350748F066
:102B10004E0F5F1F50930B0740930A0781939193C9
:102B20009FCFF0E0E0E09CCFCF93DF930097E9F0F8
:102B3000FC01329713821282A0910C07B0910D070D
:102B4000ED0130E020E01097A1F420813181820F67
:102B5000931F20910A0730910B072817390709F0B6
:102B600061C0F0930B07E0930A07DF91CF910895BE
:102B7000EA01CE17DF07E8F54A815B819E01411526
:102B80005105B1F7E901FB83EA8349915991C40FDB
:102B9000D51FEC17FD0761F4808191810296840FA7
:102BA000951FE90199838883828193819B838A831E
:102BB000F0E0E0E012968D919C9113970097B9F5A3
:102BC0002D913C911197CD010296820F931F209178
:102BD0000A0730910B072817390739F6309751F556
:102BE00010920D0710920C07B0930B07A0930A07E1
:102BF000BCCFD383C28340815181840F951FC817F6
:102C0000D90761F44E5F5F4F88819981480F591F42
:102C1000518340838A819B8193838283211531056F
:102C200009F0B0CFF0930D07E0930C079ECFFD01A4
:102C3000DC01C0CF13821282D7CF4F925F926F9286
:102C40007F928F929F92AF92BF92CF92DF92EF923C
:102C5000FF920F931F93CF93DF938C01009799F40A
:102C6000CB01DF91CF911F910F91FF90EF90DF90FB
:102C7000CF90BF90AF909F908F907F906F905F901C
:102C80004F900C94F814FC01E60FF71F9C012250A2
:102C90003109E217F30708F4AEC0D901CD91DC91F8
:102CA0001197C617D70720F1C530D10578F0CE01AE
:102CB00004978617970750F0C61BD70B2297C1932E
:102CC000D1936D937C93CF010E949415C801DF913D
:102CD000CF911F910F91FF90EF90DF90CF90BF9019
:102CE000AF909F908F907F906F905F904F900895DE
:102CF0005B01AC1ABD0A4C018C0E9D1EA0910C0705
:102D0000B0910D07512C412CF12CE12C109731F58D
:102D100080910A0790910B078815990509F05CC00E
:102D20004616570608F058C0809106029091070297
:102D3000009741F48DB79EB740910A0250910B0263
:102D4000841B950BE817F90708F055C0F0930B07A3
:102D5000E0930A07F90171836083B8CF8D919C914C
:102D6000119712966C90129713967C901397A81552
:102D7000B90559F56C0142E0C40ED11CCA14DB043C
:102D800020F1AC014A195B09DA011296159780F01F
:102D90006282738251834083D9016D937C93E114E5
:102DA000F10471F0D7011396FC93EE9312978ECF36
:102DB00022968C0F9D1FF90191838083F301EFCF41
:102DC000F0930D07E0930C0781CF4816590608F4DD
:102DD0002C017D01D3019ACFCB010E94F8147C0114
:102DE000009749F0AE01B8010E94FE16C8010E948A
:102DF000941587016BCF10E000E068CFFB01DC0188
:102E000002C001900D9241505040D8F70895FB0147
:102E1000DC0101900D920020E1F70895F894FFCFB6
:102E2000FFFF0200040000000E0780000000000009
:102E3000720340026D02BF033A037C02900200005D
:102E400000003E0410049E08E20A2A06A205E005DE
:102E50008C055A0539050505E4048E045B040D0A4A
:102E6000000A3D3D3D3D3D204D454E55203D3D3DFB
:102E70003D3D00436F6D6D616E64733A00202073B9
:102E8000202D2053746172742057617368202620AE
:102E900043757265204379636C6500202031202DD5
:102EA0002053657420736F617020776970652063AB
:102EB00079636C6573202863757272656E743A204D
:102EC00000202032202D20536574207761746572B4
:102ED0002077697065206379636C6573202863755A
:102EE0007272656E743A2000202033202D205365C5
:102EF0007420637572652077697065206379636CEF
:102F00006573202863757272656E743A2000202004
:102F10006D202D2053686F772074686973206D656C
:102F20006E75003D3D3D3D3D3D3D3D3D3D3D3D3DA5
:102F30003D3D3D000A3D3D3D20466F726D4A657442
:102F4000205761736820262043757265205379737A
:102F500074656D203D3D3D005A65726F696E672056
:102F60005A2D617869732E2E2E0053797374656D16
:102F7000207265616479210A000A53746172746970
:102F80006E67205761736820262043757265204361
:102F900079636C652E2E2E00506861736520313A7E
:102FA0002057617368696E67207769746820736F52
:102FB00061702E2E2E00202050756D703A204F4EDD
:102FC0002C2056616C76653A204F4E2028736F6135
:102FD00070292C2042502053706565643A200043CC
:102FE00079636C6520616C72656164792072756EBD
:102FF0006E696E6721000A456E746572206E756D8C
:10300000626572206F6620736F61702077697065EA
:10301000206379636C65732028312D3130293A00A3
:10302000536F61702077697065206379636C657395
:103030002073657420746F3A20000A456E746572BF
:10304000206E756D626572206F662077617465729F
:103050002077697065206379636C65732028312D52
:103060003130293A005761746572207769706520A4
:103070006379636C65732073657420746F3A200004
:103080000A456E746572206E756D626572206F669A
:1030900020637572652077697065206379636C655C
:1030A000732028312D3130293A004375726520771D
:1030B000697065206379636C65732073657420742F
:1030C0006F3A20002020536F61702077697065206F
:1030D0006379636C6520002F0020636F6D706C65F1
:1030E0007465000A506861736520323A2057617335
:1030F00068696E6720776974682077617465722EDD
:103100002E2E00202050756D703A204F4E2C2056E8
:10311000616C76653A204F46462028776174657267
:10312000292C2042502053706565643A20002020ED
:1031300057617465722077697065206379636C6587
:1031400020000A506861736520333A204375726924
:103150006E672E2E2E00202050756D703A204F463F
:10316000462C205556204C45443A204F4E2C2042A8
:10317000502053706565643A2000202043757265C5
:103180002077697065206379636C6520000A3D3D96
:103190003D2057617368202620437572652043796E
:1031A000636C6520434F4D504C45544521203D3DB7
:1031B0003D00446F20796F752077616E7420746FC5
:1031C00020737461727420616E6F7468657220631D
:1031D00079636C653F202873203D207965732C202E
:1031E000616E79206F74686572206B6579203D206F
:0431F0006E6F2900D5
:00000001FF
