:100000000C9454010C9485010C9485010C94850189
:100010000C9485010C9485010C9485010C94850148
:100020000C9485010C9485010C9485010C94850138
:100030000C9485010C9485010C9485010C94850128
:100040000C9485010C9485010C9485010C94850118
:100050000C9485010C9485010C9485010C94420745
:100060000C9485010C9485010C9485010C948501F8
:100070000C9485010C9485010C9485010C948501E8
:100080000C9485010C9485010C9485010C948501D8
:100090000C9485010C9485010C9485010C948501C8
:1000A0000C9485010C9485010C9485010C948501B8
:1000B0000C9485010C9485010C9485010C948501A8
:1000C0000C9485010C9485010C9485010C94850198
:1000D0000C9485010C9485010C9485010C94850188
:1000E0000C9485010C9402040C9406030C94F50105
:1000F0000C94FC010C94CF080C94B0020C941E02DA
:100100000C9428040C941A020C9414020C94060209
:100110000C94A6020C94AE020C9428020C942F04AA
:100120000C9436040C945B030C947D020C9419041B
:100130000C9427030C9460020C94A4020C942C02DF
:100140000C94AC020C944B040C94A2020C94D601B7
:100150000C94AE030C947C030C9421040C94C40303
:100160000C9422020C9402020C94F9010C941002DB
:100170000C94A8020C94ED010C94AA020C94B806FD
:100180000C943D040C940C020C94DB010C94320290
:100190000C94F1010C9444040C9440070C944C040E
:1001A00000000A0B02090C0D0E08070304010000F1
:1001B000000000000000000000000000000000003F
:1001C00000000000000000000000000012111000FC
:1001D000000000000000000000000000000000001F
:1001E00000000000000000002200250028002B0075
:1001F0002E003100340002010000050108010B014E
:1002000000002100240027002A002D0030003300C8
:1002100001010000040107010A01050505050705A4
:1002200008080808020202020A0A08080404040472
:10023000010101010101010103030303030303039E
:10024000040707070C0C0C0C0C0C0C0C020202022D
:1002500006060606060606060B0B0B0B0B0B0B0B16
:1002600001021020200808102040102040800201C8
:1002700002010804020101020408102040808040AD
:1002800020100804020180040201804020100804AC
:10029000020108040201010204081020408001024A
:1002A000040810204080CF0811241FBECFEFD1E2F8
:1002B000DEBFCDBF00E00CBF12E0A0E0B2E0E0E6A0
:1002C000FBE100E00BBF02C007900D92A832B1071E
:1002D000D9F722E0A8E2B2E001C01D92AD3BB2071F
:1002E000E1F711E0C4E5D1E000E006C02197010983
:1002F000802FFE010E94C609C335D10780E00807A0
:10030000A9F70E948C070C94AE0D0C94000090E0AD
:10031000FC01E05AFD4F2491865E9D4FFC018491C3
:10032000882399F090E0880F991FFC01E050FE4F60
:10033000A591B491FC01EA51FE4F859194918FB73C
:10034000F894EC91E22BEC938FBF0895282F30E0C6
:10035000F901E056FE4F9491F901E05AFD4F4491A6
:10036000265E3D4FF9012491222309F435C09923DB
:1003700011F191509231F8F4E92FF0E08827EC5315
:10038000FE4F8F4F0C94C609F501F901D601ED011E
:10039000F101DB01FC01020206020C021002140250
:1003A0001A021E02DB01220228022C028091800028
:1003B0008F7780938000E22FF0E0EE0FFF1FEA516D
:1003C000FE4FA591B4918FB7F894EC91611148C09C
:1003D00040954E234C938FBF0895809180008F7D70
:1003E000E8CF80918000877FE4CF84B58F7784BD8C
:1003F000E2CF84B58F7DFBCF8091B0008F77809363
:10040000B000D9CF8091B0008F7DF9CF809190005E
:100410008F7780939000CFCF809190008F7DF9CF20
:1004200080919000877FF5CF8091A0008F77809397
:10043000A000C1CF8091A0008F7DF9CF8091A00056
:10044000877FF5CF809120018F7780932001B3CFF4
:10045000809120018F7DF9CF80912001877FF5CF9A
:100460004E2BB8CFCF93DF93FC012781222329F1B4
:10047000EC0180850E94870189850E9487018F8118
:10048000843011F0883099F48A850E9487018B8529
:100490000E9487018FA58F3F81F00E9487016EA582
:1004A00081E068278FA5DF91CF910C94A60183305E
:1004B00011F0863079F78A85EBCFDF91CF910895DF
:1004C000CF93DF93FC0127812223A1F0EC0101905F
:1004D000F081E02D0284F385E02D60E019958FA571
:1004E0008F3F41F00E9487016EA58FA5DF91CF91CC
:1004F0000C94A601DF91CF910895DC01ED91FC9160
:1005000011972285338547705527662777274150F5
:10051000510961097109473051056105710570F490
:10052000FA018827E956FD4F8F4F0C94C609A202A5
:10053000A402A602A802AA02AC02AE0261E0CD01AA
:10054000F901199465E0FBCF64E0F9CF66E0F7CFDD
:1005500062E0F5CF6AE0F3CF68E0F1CF69E0EFCF7A
:10056000CF93DF93EC01CB01BA0126E030E040E00D
:1005700050E00E94A709623071058105910589F15B
:100580006CF46115710581059105D1F0613071053B
:1005900081059105F9F0DF91CF91089564307105DF
:1005A0008105910561F124F16530710581059105A1
:1005B00091F7E881F9810284F385E02D66E006C0B9
:1005C000E881F9810284F385E02D64E0CE01DF91BA
:1005D000CF911994E881F9810284F385E02D65E0DB
:1005E000F5CFE881F9810284F385E02D61E0EECF5B
:1005F000E881F9810284F385E02D63E0E7CFE881AB
:10060000F9810284F385E02D62E0E0CFDC01ED9119
:10061000FC910284F385E02D4370552766277727E8
:10062000423051056105710571F043305105610596
:10063000710559F0413051056105710511F065E012
:10064000199466E0FDCF6AE0FBCF69E0F9CFCF9364
:10065000DF93EC01CB01BA0123E030E040E050E051
:100660000E94A709613071058105910599F06230FA
:10067000710581059105A9F0672B682B692BC1F4E1
:10068000E881F9810284F385E02D64E0CE01DF91F9
:10069000CF911994E881F9810284F385E02D61E01E
:1006A000F5CFE881F9810284F385E02D62E0EECF99
:1006B000DF91CF910895DC01ED91FC910284F385E7
:1006C000E02D437055276627772742305105610595
:1006D000710571F0433051056105710559F04130E4
:1006E00051056105710511F062E0199463E0FDCFD9
:1006F00061E0FBCF60E0F9CFCF93DF93EC01E881BD
:10070000F9810284F385E02D8A8160E0811162E045
:10071000CE011995E881F9810284F385E02D8A8163
:1007200061E0811163E0CE0119958CA59DA5823011
:10073000910538F0880F991F880F991F0597019729
:10074000F1F7E881F9810284F385E02D8A8160E088
:10075000811162E0CE01DF91CF911994CF93DF93A5
:10076000EC0120E030E0A901688D798D8A8D9B8DA8
:100770000E94BC0B18162CF4E8A9F9A9DF91CF91BF
:100780001994EAA9FBA9FACFCF92DF92EF92FF92D8
:100790000F931F93CF93DF93DC011796CC91C43056
:1007A00039F0C83059F1C33019F0C63049F1C2E010
:1007B0008C01085F1F4FF12CE12CC62ED12CD1E00B
:1007C000F8016481C6010E2C02C0959587950A94A4
:1007D000E2F780FD6D270F5F1F4F80810E94A60109
:1007E000BFEFEB1AFB0AEC1658F3DF91CF911F9184
:1007F0000F91FF90EF90DF90CF900895C4E0D8CF95
:10080000C3E0D6CFDC011796EC911797E93008F0DA
:1008100042C0F0E08827E05FFB4F8F4F0C94C60981
:100820001904210428042F0436044B043D044B040E
:100830004404ED91FC9111970684F785E02DCD01DC
:100840001994ED91FC9111970088F189E02DF7CF73
:10085000ED91FC9111970288F389E02DF0CFED9195
:10086000FC9111970488F589E02DE9CFED91FC9179
:1008700011970688F789E02DE2CFED91FC91119751
:10088000008CF18DE02DDBCFED91FC911197028C66
:10089000F38DE02DD4CF08954F925F926F927F92A7
:1008A0008F929F92AF92BF92CF92DF92EF92FF9280
:1008B0000F931F93CF93DF93EC01CC88DD88EE88F4
:1008C000FF8888899989AA89BB89C81AD90AEA0A3E
:1008D000FB0A688D798D8A8D9B8D9B01AC010E94EE
:1008E000C10B4B015C0168A179A18AA19BA19B016D
:1008F000AC010E94F1099B01AC01C501B4010E9449
:10090000620A0E94D40AC114D104E104F10409F07E
:10091000B6C062307105810591050CF0D0C01B8214
:100920001C821D821E82188E198E1A8E1B8E1CAA86
:100930001DAA1EAA1FAAC12CD12C7601C701B6017F
:10094000DF91CF911F910F91FF90EF90DF90CF90AB
:10095000BF90AF909F908F907F906F905F904F90DF
:1009600008951016110612061306B4F46C157D05D1
:100970008E059F051CF42A812111A1C09B01AC01A9
:1009800088279927DC01821B930BA40BB50B8CAB3A
:100990009DABAEABBFAB93C0011511052105310571
:1009A00009F48DC06C157D058E059F050CF087C080
:1009B0008A81882309F483C030952095109501958C
:1009C0001F4F2F4F3F4F0CAB1DAB2EAB3FAB77C034
:1009D000011511052105310509F471C088249924F8
:1009E00054018C189D08AE08BF08681579058A0562
:1009F0009B050CF064C08A81811161C0DDCFCCAC55
:100A0000DDACEEACFFACA7019601C701B6010E94B8
:100A1000F1092B013C01C501B4010E940C0B20E03F
:100A200030E040E850E40E94C10B20E030E040E8B4
:100A30005FE30E94F1099B01AC01C301B2010E9476
:100A4000620A9B01AC01C701B6010E94F0093B019B
:100A50006C01FE01E05CFF4FE080F18002811381B8
:100A60009701A8010E94BC0B181614F473018601AB
:100A7000C701D8018CAF9DAFAEAFBFAF3AC00CA9D4
:100A80001DA92EA93FA91C141D041E041F040CF44B
:100A900068CF10161106120613060CF099CF002726
:100AA000112798010C191D092E093F0960177107BC
:100AB000820793070CF062CF2A8121115FCF8CA8A7
:100AC0009DA8AEA8BFA881149104A104B10409F0A7
:100AD00096CF88AD99ADAAADBBAD8CAF9DAFAEAF93
:100AE000BFAF81E01C141D041E041F040CF080E045
:100AF0008A833FEF831A930AA30AB30A8CAA9DAA9A
:100B0000AEAABFAA8CAC9DACAEACBFACC501B40163
:100B10000E94DB0A6B017C01CB82DC82ED82FE82CB
:100B2000A501940160E074E284E799E40E94620AFE
:100B3000688F798F8A8F9B8F2A812111FFCE9058E1
:100B4000688F798F8A8F9B8FF9CECF92DF92EF9249
:100B5000FF92CF93DF93EC018B819C81AD81BE81AD
:100B6000892B8A2B8B2B09F453C03FB7F8948091C3
:100B7000B5029091B602A091B702B091B80226B525
:100B8000A89B05C02F3F19F00196A11DB11D3FBFC5
:100B9000BA2FA92F982F88276C017D01C20ED11C76
:100BA000E11CF11C42E0CC0CDD1CEE1CFF1C4A9544
:100BB000D1F788A599A5AAA5BBA5B701A601481B91
:100BC000590B6A0B7B0B8B819C81AD81BE814817D1
:100BD00059076A077B07E0F088899989AA89BB8948
:100BE0002A812223B1F10196A11DB11D888B998B19
:100BF000AA8BBB8B488959896A897B89CE010E945F
:100C00000204C8A6D9A6EAA6FBA6CE010E944C04FF
:100C100020E030E0A901688D798D8A8D9B8D0E943E
:100C20005D0A81111AC081E0CC88DD88EE88FF88DA
:100C3000488959896A897B89C416D506E606F7066C
:100C400009F480E0DF91CF91FF90EF90DF90CF909B
:100C500008950197A109B109C9CF81E0F3CFCF92DF
:100C6000DF92EF92FF920F931F93CF93DF93EC01EC
:100C70006A017B0120E030E0A901CB01B6010E94AE
:100C80005D0A87FF04C0F7FAF094F7F8F094A70123
:100C900096016C8D7D8D8E8D9F8D0E945D0A8823BF
:100CA00009F446C0CC8EDD8EEE8EFF8E8E01005C88
:100CB0001F4FA701960160E074E284E799E40E9467
:100CC000620AF80160837183828393838CA99DA952
:100CD000AEA9BFA9181619061A061B064CF5688D91
:100CE000798D8A8D9B8D9B01AC010E94C10B6B019C
:100CF0007C0168A179A18AA19BA19B01AC010E9402
:100D0000F1099B01AC01C701B6010E94620A0E9471
:100D1000D40A6CAB7DAB8EAB9FABCE01DF91CF9194
:100D20001F910F91FF90EF90DF90CF900C944C04A7
:100D3000DF91CF911F910F91FF90EF90DF90CF90B7
:100D400008950F931F93FC0104891589268937891B
:100D5000041715072607370741F0448B558B668B20
:100D6000778B1F910F910C944C041F910F91089554
:100D700008954F925F926F927F928F929F92AF925F
:100D8000BF92CF92DF92EF92FF92CF93DF93EC016D
:100D90006A017B0120E030E0A901CB01B6010E948D
:100DA0005D0A87FF04C0F7FAF094F7F8F09488A082
:100DB00099A0AAA0BBA0A7019601C501B4010E94F9
:100DC0005D0A882309F44DC06CA97DA98EA99FA94D
:100DD0000E940C0B2B013C01A7019601C501B40137
:100DE0000E94620A9B01AC01C301B2010E94C10BC7
:100DF0000E94D40A6CAB7DAB8EAB9FABA701960172
:100E000060E070E080E090E40E94620A0E94340C8E
:100E100026E53EE04DE25FE30E94C10B20E034E2B4
:100E200044E759E40E94C10B68AF79AF8AAF9BAF2A
:100E3000C8A2D9A2EAA2FBA2E881F9810084F185C7
:100E4000E02DCE01DF91CF91FF90EF90DF90CF901A
:100E5000BF90AF909F908F907F906F905F904F90DA
:100E60001994DF91CF91FF90EF90DF90CF90BF90DA
:100E7000AF909F908F907F906F905F904F9008956C
:100E80000C94250D1F920F920FB60F9211242F93E1
:100E90003F938F939F93AF93BF938091B1029091B3
:100EA000B202A091B302B091B4023091B00223E03B
:100EB000230F2D3758F50196A11DB11D2093B002C7
:100EC0008093B1029093B202A093B302B093B402A4
:100ED0008091B5029091B602A091B702B091B8028C
:100EE0000196A11DB11D8093B5029093B602A09307
:100EF000B702B093B802BF91AF919F918F913F918C
:100F00002F910F900FBE0F901F90189526E8230F7A
:100F10000296A11DB11DD2CF789484B5826084BDA4
:100F200084B5816084BD85B5826085BD85B58160ED
:100F300085BD80916E00816080936E00109281006B
:100F40008091810082608093810080918100816026
:100F500080938100809180008160809380008091E7
:100F6000B10084608093B1008091B0008160809373
:100F7000B0008091910082608093910080919100F7
:100F800081608093910080919000816080939000B7
:100F90008091A10082608093A1008091A100816076
:100FA0008093A1008091A00081608093A000809137
:100FB00021018260809321018091210181608093D1
:100FC00021018091200181608093200180917A002D
:100FD000846080937A0080917A00826080937A00A6
:100FE00080917A00816080937A0080917A00806895
:100FF00080937A001092C10061E088E30E94A6010C
:1010000061E08BE30E94A60182E00E94870183E0F9
:101010000E94870184E00E94870140E050E86BE372
:1010200075E488E292E00E942F0640E050E86BE30E
:1010300075E48CE692E00E942F0640E050E46CE1FB
:1010400076E488E292E00E94B90640E050E068E46D
:1010500073E48CE692E00E94B90640913802509108
:10106000390260913A0270913B024856524461093C
:10107000710988E292E00E94A10688E292E00E9453
:10108000A5058111FACF1092380210923902109200
:101090003A0210923B0210923C0210923D021092D2
:1010A0003E0210923F0210925C0210925D0210927A
:1010B0005E0210925F0210922B0210922C0210928C
:1010C0002D0210922E0210924002109241021092B4
:1010D000420210924302C0E0D0E08CE692E00E940F
:1010E000A50588E292E00E94A50540913C0250913E
:1010F0003D0260913E0270913F02809138029091D2
:101100003902A0913A02B0913B02481759076A0789
:101110007B07F1F48091000290910102222733278E
:10112000281B390B309301022093000240E050E865
:101130006BEB74E4019651F588E292E00E942F0671
:1011400048EB54E260E070E088E292E00E94A10681
:1011500040E050E06AE774E48CE692E00E942F06DB
:1011600040E050E068E473E48CE692E00E94B90647
:1011700040E05AEC6AE97BE38CE692E00E94A1062B
:10118000209709F4AACF0E940000A7CF88E292E03E
:101190000E942F0640EA5FE060E070E0D5CF8F92BA
:1011A0009F92AF92BF92CF92DF92EF92FF920F93F6
:1011B0001F93CF93DF93E8E2F2E00CE012E011839B
:1011C0000083882483948782108A118A128A138A62
:1011D000148A158A168A178A108E118E128E138E13
:1011E000148E158E168E178E10A211A212A213A2A3
:1011F000C12CD12C80E8E82E8FE3F82EC4A2D5A212
:10120000E6A2F7A21382148215821682C1E0D0E012
:10121000D5A7C4A799249A9497A610A611A612A69A
:1012200013A687E3808786E3818794E0A92EA286B0
:1012300025E0B22EB38616A614AA15AA16AA17AAD6
:1012400010AE11AE12AE13AE14AE15AE16AE17AE92
:10125000C0926802D0926902E0926A02F0926B0238
:1012600012821486158616861786CF010E943202D6
:10127000B701A60188E292E00E94B906B701A60173
:1012800088E292E00E942F06ECE6F2E011830083F0
:101290008782108A118A128A138A148A158A168AFA
:1012A000178A108E118E128E138E148E158E168E36
:1012B000178E10A211A212A213A2C4A2D5A2E6A256
:1012C000F7A21382148215821682D5A7C4A797A607
:1012D00010A611A612A613A68AE3808789E3818748
:1012E000A286B38616A614AA15AA16AA17AA10AE25
:1012F00011AE12AE13AE14AE15AE16AE17AEC0924E
:10130000AC02D092AD02E092AE02F092AF02128235
:101310001486158616861786CF010E943202B70101
:10132000A6018CE692E00E94B906B701A6018CE600
:1013300092E0DF91CF911F910F91FF90EF90DF909E
:10134000CF90BF90AF909F908F900C942F06052E5A
:1013500097FB1EF400940E94BE0957FD07D00E941F
:10136000CE0907FC03D04EF40C94BE09509540956D
:10137000309521953F4F4F4F5F4F08959095809541
:10138000709561957F4F8F4F9F4F0895EE0FFF1F10
:10139000881F8BBF0790F691E02D1994A1E21A2EB9
:1013A000AA1BBB1BFD010DC0AA1FBB1FEE1FFF1F09
:1013B000A217B307E407F50720F0A21BB30BE40B59
:1013C000F50B661F771F881F991F1A9469F76095A0
:1013D0007095809590959B01AC01BD01CF0108955A
:1013E0005058BB27AA270E94080A0C94820B0E941F
:1013F000740B38F00E947B0B20F039F49F3F19F4F6
:1014000026F40C94710B0EF4E095E7FB0C946B0B37
:10141000E92F0E94930B58F3BA17620773078407EA
:10142000950720F079F4A6F50C94B50B0EF4E09531
:101430000B2EBA2FA02D0B01B90190010C01CA018E
:10144000A0011124FF27591B99F0593F50F4503E39
:1014500068F11A16F040A22F232F342F4427585F2B
:10146000F3CF469537952795A795F0405395C9F743
:101470007EF41F16BA0B620B730B840BBAF09150FB
:10148000A1F0FF0FBB1F661F771F881FC2F70EC09A
:10149000BA0F621F731F841F48F48795779567956D
:1014A000B795F7959E3F08F0B0CF9395880F08F059
:1014B0009927EE0F9795879508950E94470B08F49A
:1014C00081E008950E94760A0C94820B0E947B0BA7
:1014D00058F00E94740B40F029F45F3F29F00C94FF
:1014E0006B0B51110C94B60B0C94710B0E94930B67
:1014F00068F39923B1F3552391F3951B550BBB2743
:10150000AA2762177307840738F09F5F5F4F220F87
:10151000331F441FAA1FA9F335D00E2E3AF0E0E87E
:1015200032D091505040E695001CCAF72BD0FE2FC8
:1015300029D0660F771F881FBB1F2617370748075C
:10154000AB07B0E809F0BB0B802DBF01FF27935814
:101550005F4F3AF09E3F510578F00C946B0B0C9462
:10156000B60B5F3FE4F3983ED4F386957795679585
:10157000B795F7959F5FC9F7880F911D9695879549
:1015800097F90895E1E0660F771F881FBB1F621768
:1015900073078407BA0720F0621B730B840BBA0B26
:1015A000EE1F88F7E09508950E94DB0A6894B11158
:1015B0000C94B60B08950E949B0B88F09F5798F0EF
:1015C000B92F9927B751B0F0E1F0660F771F881F48
:1015D000991F1AF0BA95C9F714C0B13091F00E9462
:1015E000B50BB1E008950C94B50B672F782F8827C1
:1015F000B85F39F0B93FCCF3869577956795B39589
:10160000D9F73EF490958095709561957F4F8F4FF7
:101610009F4F0895E89409C097FB3EF490958095FC
:10162000709561957F4F8F4F9F4F9923A9F0F92FA8
:1016300096E9BB279395F695879577956795B79526
:10164000F111F8CFFAF4BB0F11F460FF1BC06F5F0C
:101650007F4F8F4F9F4F16C0882311F096E911C01E
:10166000772321F09EE8872F762F05C0662371F03F
:1016700096E8862F70E060E02AF09A95660F771F53
:10168000881FDAF7880F9695879597F90895990F2F
:101690000008550FAA0BE0E8FEEF16161706E8073C
:1016A000F907C0F012161306E407F50798F0621B5D
:1016B000730B840B950B39F40A2661F0232B242B32
:1016C000252B21F408950A2609F4A140A6958FEF51
:1016D000811D811D089597F99F6780E870E060E0A3
:1016E00008959FEF80EC089500240A9416161706BB
:1016F00018060906089500240A9412161306140603
:1017000005060895092E0394000C11F4882352F065
:10171000BB0F40F4BF2B11F460FF04C06F5F7F4F1D
:101720008F4F9F4F089557FD9058440F551F59F004
:101730005F3F71F04795880F97FB991F61F09F3FBE
:1017400079F087950895121613061406551FF2CFE7
:101750004695F1DF08C0161617061806991FF1CF37
:1017600086957105610508940895E894BB2766275E
:101770007727CB0197F908950E94470B08F48FEF64
:1017800008950E94D40B0C94820B0E94740B38F0C5
:101790000E947B0B20F0952311F00C946B0B0C94A2
:1017A000710B11240C94B60B0E94930B70F3959F50
:1017B000C1F3950F50E0551F629FF001729FBB2748
:1017C000F00DB11D639FAA27F00DB11DAA1F649FE4
:1017D0006627B00DA11D661F829F2227B00DA11D97
:1017E000621F739FB00DA11D621F839FA00D611D1D
:1017F000221F749F3327A00D611D231F849F600D3E
:10180000211D822F762F6A2F11249F5750409AF066
:10181000F1F088234AF0EE0FFF1FBB1F661F771FF2
:10182000881F91505040A9F79E3F510580F00C94BD
:101830006B0B0C94B60B5F3FE4F3983ED4F38695A4
:1018400077956795B795F795E7959F5FC1F7FE2B5D
:10185000880F911D9695879597F9089519F416F4B8
:101860000C94710B0C94740C0E949B0BB8F399238D
:10187000C9F3B6F39F57550B87FF0E94820C0024D3
:10188000A0E640EA900180585695979528F4805C30
:10189000660F771F881F20F026173707480730F498
:1018A000621B730B840B202931294A2BA6951794B0
:1018B0000794202531254A2758F7660F771F881F80
:1018C00020F026173707480730F4620B730B840BA0
:1018D000200D311D411DA09581F7B901842F91582C
:1018E000880F9695879508959F3F31F0915020F489
:1018F000879577956795B795880F911D96958795EC
:1019000097F9089591505040660F771F881FD2F7BE
:1019100008950F931F93CF93DF938230910510F4B6
:1019200082E090E0E091BB02F091BC0230E020E068
:10193000B0E0A0E0309799F42115310509F44AC0D0
:10194000281B390B24303105D8F58A819B8161151C
:10195000710589F1FB0193838283FE0111C04081EF
:1019600051810281138148175907E0F04817590740
:1019700099F4109761F012960C93129713961C939A
:101980003296CF01DF91CF911F910F91089500936F
:10199000BB021093BC02F4CF2115310551F0421760
:1019A000530738F0A901DB019A01BD01DF01F801FD
:1019B000C1CFEF01F9CF9093BC028093BB02CDCF92
:1019C000FE01E20FF31F8193919322503109398375
:1019D0002883D7CF2091B9023091BA02232B41F44A
:1019E00020910402309105023093BA022093B9028B
:1019F00020910202309103022115310541F42DB7E7
:101A00003EB74091060250910702241B350BE0912E
:101A1000B902F091BA02E217F307A0F42E1B3F0BB4
:101A20002817390778F0AC014E5F5F4F2417350750
:101A300048F04E0F5F1F5093BA024093B902819352
:101A400091939FCFF0E0E0E09CCFCF93DF9300979E
:101A5000E9F0FC01329713821282A091BB02B0918F
:101A6000BC02ED0130E020E01097A1F4208131812B
:101A7000820F931F2091B9023091BA0228173907BB
:101A800009F061C0F093BA02E093B902DF91CF91FF
:101A90000895EA01CE17DF07E8F54A815B819E01D0
:101AA00041155105B1F7E901FB83EA834991599149
:101AB000C40FD51FEC17FD0761F480819181029658
:101AC000840F951FE90199838883828193819B8389
:101AD0008A83F0E0E0E012968D919C911397009735
:101AE000B9F52D913C911197CD010296820F931F6C
:101AF0002091B9023091BA022817390739F6309788
:101B000051F51092BC021092BB02B093BA02A0939E
:101B1000B902BCCFD383C28340815181840F951F0A
:101B2000C817D90761F44E5F5F4F88819981480FCC
:101B3000591F518340838A819B819383828321151E
:101B4000310509F0B0CFF093BC02E093BB029ECF09
:101B5000FD01DC01C0CF13821282D7CFF894FFCFF2
:101B6000FFFF0000BD0280000000000060023202A2
:101B7000B80640074C04C4030204AE037C035B03B5
:081B800027030603B0027D02F9
:00000001FF
